{
  "_format": "hh-sol-artifact-1",
  "contractName": "EscrowPayment",
  "sourceName": "contracts/EscrowPayment.sol",
  "abi": [
    {
      "inputs": [
        {
          "internalType": "address",
          "name": "_platformWallet",
          "type": "address"
        }
      ],
      "stateMutability": "nonpayable",
      "type": "constructor"
    },
    {
      "inputs": [],
      "name": "ReentrancyGuardReentrantCall",
      "type": "error"
    },
    {
      "anonymous": false,
      "inputs": [
        {
          "indexed": true,
          "internalType": "uint256",
          "name": "escrowId",
          "type": "uint256"
        }
      ],
      "name": "Cancelled",
      "type": "event"
    },
    {
      "anonymous": false,
      "inputs": [
        {
          "indexed": true,
          "internalType": "uint256",
          "name": "escrowId",
          "type": "uint256"
        },
        {
          "indexed": false,
          "internalType": "uint256",
          "name": "deliveredAt",
          "type": "uint256"
        }
      ],
      "name": "Delivered",
      "type": "event"
    },
    {
      "anonymous": false,
      "inputs": [
        {
          "indexed": true,
          "internalType": "uint256",
          "name": "escrowId",
          "type": "uint256"
        },
        {
          "indexed": true,
          "internalType": "address",
          "name": "buyer",
          "type": "address"
        },
        {
          "indexed": true,
          "internalType": "address",
          "name": "seller",
          "type": "address"
        },
        {
          "indexed": false,
          "internalType": "address",
          "name": "token",
          "type": "address"
        },
        {
          "indexed": false,
          "internalType": "uint256",
          "name": "amount",
          "type": "uint256"
        },
        {
          "indexed": false,
          "internalType": "uint256",
          "name": "sellerDeadline",
          "type": "uint256"
        }
      ],
      "name": "EscrowCreated",
      "type": "event"
    },
    {
      "anonymous": false,
      "inputs": [
        {
          "indexed": true,
          "internalType": "uint256",
          "name": "escrowId",
          "type": "uint256"
        },
        {
          "indexed": false,
          "internalType": "uint256",
          "name": "amount",
          "type": "uint256"
        }
      ],
      "name": "EscrowFunded",
      "type": "event"
    },
    {
      "anonymous": false,
      "inputs": [
        {
          "indexed": true,
          "internalType": "uint256",
          "name": "escrowId",
          "type": "uint256"
        },
        {
          "indexed": false,
          "internalType": "address",
          "name": "buyer",
          "type": "address"
        },
        {
          "indexed": false,
          "internalType": "uint256",
          "name": "amount",
          "type": "uint256"
        }
      ],
      "name": "Refunded",
      "type": "event"
    },
    {
      "anonymous": false,
      "inputs": [
        {
          "indexed": true,
          "internalType": "uint256",
          "name": "escrowId",
          "type": "uint256"
        },
        {
          "indexed": false,
          "internalType": "address",
          "name": "seller",
          "type": "address"
        },
        {
          "indexed": false,
          "internalType": "uint256",
          "name": "sellerAmount",
          "type": "uint256"
        },
        {
          "indexed": false,
          "internalType": "uint256",
          "name": "platformFee",
          "type": "uint256"
        }
      ],
      "name": "Released",
      "type": "event"
    },
    {
      "anonymous": false,
      "inputs": [
        {
          "indexed": true,
          "internalType": "uint256",
          "name": "escrowId",
          "type": "uint256"
        },
        {
          "indexed": false,
          "internalType": "address",
          "name": "buyer",
          "type": "address"
        },
        {
          "indexed": false,
          "internalType": "uint256",
          "name": "amount",
          "type": "uint256"
        }
      ],
      "name": "TimeoutRefunded",
      "type": "event"
    },
    {
      "anonymous": false,
      "inputs": [
        {
          "indexed": true,
          "internalType": "uint256",
          "name": "escrowId",
          "type": "uint256"
        },
        {
          "indexed": false,
          "internalType": "address",
          "name": "seller",
          "type": "address"
        },
        {
          "indexed": false,
          "internalType": "uint256",
          "name": "sellerAmount",
          "type": "uint256"
        },
        {
          "indexed": false,
          "internalType": "uint256",
          "name": "platformFee",
          "type": "uint256"
        }
      ],
      "name": "TimeoutReleased",
      "type": "event"
    },
    {
      "inputs": [],
      "name": "BUYER_REVIEW_PERIOD",
      "outputs": [
        {
          "internalType": "uint256",
          "name": "",
          "type": "uint256"
        }
      ],
      "stateMutability": "view",
      "type": "function"
    },
    {
      "inputs": [],
      "name": "MAX_SELLER_DEADLINE",
      "outputs": [
        {
          "internalType": "uint256",
          "name": "",
          "type": "uint256"
        }
      ],
      "stateMutability": "view",
      "type": "function"
    },
    {
      "inputs": [],
      "name": "MIN_AMOUNT",
      "outputs": [
        {
          "internalType": "uint256",
          "name": "",
          "type": "uint256"
        }
      ],
      "stateMutability": "view",
      "type": "function"
    },
    {
      "inputs": [],
      "name": "PLATFORM_FEE_BPS",
      "outputs": [
        {
          "internalType": "uint256",
          "name": "",
          "type": "uint256"
        }
      ],
      "stateMutability": "view",
      "type": "function"
    },
    {
      "inputs": [
        {
          "internalType": "uint256",
          "name": "escrowId",
          "type": "uint256"
        }
      ],
      "name": "cancelEscrow",
      "outputs": [],
      "stateMutability": "nonpayable",
      "type": "function"
    },
    {
      "inputs": [
        {
          "internalType": "uint256",
          "name": "escrowId",
          "type": "uint256"
        }
      ],
      "name": "claimTimeoutRefund",
      "outputs": [],
      "stateMutability": "nonpayable",
      "type": "function"
    },
    {
      "inputs": [
        {
          "internalType": "uint256",
          "name": "escrowId",
          "type": "uint256"
        }
      ],
      "name": "claimTimeoutRelease",
      "outputs": [],
      "stateMutability": "nonpayable",
      "type": "function"
    },
    {
      "inputs": [
        {
          "internalType": "uint256",
          "name": "escrowId",
          "type": "uint256"
        }
      ],
      "name": "confirmRelease",
      "outputs": [],
      "stateMutability": "nonpayable",
      "type": "function"
    },
    {
      "inputs": [
        {
          "internalType": "address",
          "name": "seller",
          "type": "address"
        },
        {
          "internalType": "address",
          "name": "token",
          "type": "address"
        },
        {
          "internalType": "uint256",
          "name": "amount",
          "type": "uint256"
        },
        {
          "internalType": "uint256",
          "name": "sellerDeadline",
          "type": "uint256"
        }
      ],
      "name": "createEscrow",
      "outputs": [],
      "stateMutability": "nonpayable",
      "type": "function"
    },
    {
      "inputs": [],
      "name": "escrowCounter",
      "outputs": [
        {
          "internalType": "uint256",
          "name": "",
          "type": "uint256"
        }
      ],
      "stateMutability": "view",
      "type": "function"
    },
    {
      "inputs": [
        {
          "internalType": "uint256",
          "name": "escrowId",
          "type": "uint256"
        }
      ],
      "name": "fund",
      "outputs": [],
      "stateMutability": "payable",
      "type": "function"
    },
    {
      "inputs": [
        {
          "internalType": "uint256",
          "name": "escrowId",
          "type": "uint256"
        }
      ],
      "name": "getEscrow",
      "outputs": [
        {
          "components": [
            {
              "internalType": "uint256",
              "name": "id",
              "type": "uint256"
            },
            {
              "internalType": "address",
              "name": "buyer",
              "type": "address"
            },
            {
              "internalType": "address",
              "name": "seller",
              "type": "address"
            },
            {
              "internalType": "address",
              "name": "token",
              "type": "address"
            },
            {
              "internalType": "uint256",
              "name": "amount",
              "type": "uint256"
            },
            {
              "internalType": "uint256",
              "name": "platformFee",
              "type": "uint256"
            },
            {
              "internalType": "uint256",
              "name": "createdAt",
              "type": "uint256"
            },
            {
              "internalType": "uint256",
              "name": "fundedAt",
              "type": "uint256"
            },
            {
              "internalType": "uint256",
              "name": "sellerDeadline",
              "type": "uint256"
            },
            {
              "internalType": "uint256",
              "name": "deliveredAt",
              "type": "uint256"
            },
            {
              "internalType": "uint256",
              "name": "releasedAt",
              "type": "uint256"
            },
            {
              "internalType": "enum EscrowPayment.EscrowStatus",
              "name": "status",
              "type": "uint8"
            }
          ],
          "internalType": "struct EscrowPayment.Escrow",
          "name": "",
          "type": "tuple"
        }
      ],
      "stateMutability": "view",
      "type": "function"
    },
    {
      "inputs": [],
      "name": "getEscrowCount",
      "outputs": [
        {
          "internalType": "uint256",
          "name": "",
          "type": "uint256"
        }
      ],
      "stateMutability": "view",
      "type": "function"
    },
    {
      "inputs": [
        {
          "internalType": "uint256",
          "name": "escrowId",
          "type": "uint256"
        }
      ],
      "name": "getTxHash",
      "outputs": [
        {
          "internalType": "string",
          "name": "",
          "type": "string"
        }
      ],
      "stateMutability": "view",
      "type": "function"
    },
    {
      "inputs": [
        {
          "internalType": "address",
          "name": "user",
          "type": "address"
        }
      ],
      "name": "getUserEscrows",
      "outputs": [
        {
          "internalType": "uint256[]",
          "name": "",
          "type": "uint256[]"
        }
      ],
      "stateMutability": "view",
      "type": "function"
    },
    {
      "inputs": [
        {
          "internalType": "uint256",
          "name": "escrowId",
          "type": "uint256"
        }
      ],
      "name": "markDelivered",
      "outputs": [],
      "stateMutability": "nonpayable",
      "type": "function"
    },
    {
      "inputs": [],
      "name": "platformWallet",
      "outputs": [
        {
          "internalType": "address",
          "name": "",
          "type": "address"
        }
      ],
      "stateMutability": "view",
      "type": "function"
    },
    {
      "inputs": [
        {
          "internalType": "uint256",
          "name": "escrowId",
          "type": "uint256"
        },
        {
          "internalType": "string",
          "name": "txHash",
          "type": "string"
        }
      ],
      "name": "saveTxHash",
      "outputs": [],
      "stateMutability": "nonpayable",
      "type": "function"
    }
  ],
  "bytecode": "0x60a060405234801561001057600080fd5b5060405161405a38038061405a83398181016040528101906100329190610198565b600161005061004561010060201b60201c565b61012b60201b60201c565b60000181905550600073ffffffffffffffffffffffffffffffffffffffff168173ffffffffffffffffffffffffffffffffffffffff16036100c6576040517f08c379a00000000000000000000000000000000000000000000000000000000081526004016100bd90610222565b60405180910390fd5b8073ffffffffffffffffffffffffffffffffffffffff1660808173ffffffffffffffffffffffffffffffffffffffff168152505050610242565b60007f9b779b17422d0df92223018b32b4d1fa46e071723d6817e2486d003becc55f0060001b905090565b6000819050919050565b600080fd5b600073ffffffffffffffffffffffffffffffffffffffff82169050919050565b60006101658261013a565b9050919050565b6101758161015a565b811461018057600080fd5b50565b6000815190506101928161016c565b92915050565b6000602082840312156101ae576101ad610135565b5b60006101bc84828501610183565b91505092915050565b600082825260208201905092915050565b7f496e76616c696420706c6174666f726d2077616c6c6574000000000000000000600082015250565b600061020c6017836101c5565b9150610217826101d6565b602082019050919050565b6000602082019050818103600083015261023b816101ff565b9050919050565b608051613de161027960003960008181610b9001528181610d260152818161130d015281816114a301526127bd0152613de16000f3fe6080604052600436106101095760003560e01c8063ba6bc66e11610095578063ccbae5f611610064578063ccbae5f61461035c578063ddbcb5fa14610385578063e0182436146103b0578063eb826a5f146103d9578063fa2af9da1461040257610109565b8063ba6bc66e146102c3578063c7ceafea146102ec578063ca1d209d14610317578063cc9f3c511461033357610109565b80635ccea85e116100dc5780635ccea85e146101b85780636b0a4cf6146101f557806377cff44e146102325780637d19e5961461025b578063816077491461029857610109565b806316b151351461010e5780631bee68961461013957806328a6831f14610162578063539aa77f1461018d575b600080fd5b34801561011a57600080fd5b5061012361042d565b6040516101309190612971565b60405180910390f35b34801561014557600080fd5b50610160600480360381019061015b9190612a27565b610436565b005b34801561016e57600080fd5b506101776106ad565b6040516101849190612971565b60405180910390f35b34801561019957600080fd5b506101a26106b4565b6040516101af9190612971565b60405180910390f35b3480156101c457600080fd5b506101df60048036038101906101da9190612ae5565b6106b9565b6040516101ec9190612bd0565b60405180910390f35b34801561020157600080fd5b5061021c60048036038101906102179190612bf2565b610750565b6040516102299190612caf565b60405180910390f35b34801561023e57600080fd5b5061025960048036038101906102549190612bf2565b610848565b005b34801561026757600080fd5b50610282600480360381019061027d9190612bf2565b610e60565b60405161028f9190612e23565b60405180910390f35b3480156102a457600080fd5b506102ad61105a565b6040516102ba9190612971565b60405180910390f35b3480156102cf57600080fd5b506102ea60048036038101906102e59190612bf2565b611061565b005b3480156102f857600080fd5b506103016115dd565b60405161030e9190612971565b60405180910390f35b610331600480360381019061032c9190612bf2565b6115e3565b005b34801561033f57600080fd5b5061035a60048036038101906103559190612bf2565b6119d2565b005b34801561036857600080fd5b50610383600480360381019061037e9190612e3f565b611e35565b005b34801561039157600080fd5b5061039a61235f565b6040516103a79190612971565b60405180910390f35b3480156103bc57600080fd5b506103d760048036038101906103d29190612bf2565b61236a565b005b3480156103e557600080fd5b5061040060048036038101906103fb9190612bf2565b612560565b005b34801561040e57600080fd5b506104176127bb565b6040516104249190612eb5565b60405180910390f35b60008054905090565b8260008111801561044957506000548111155b610488576040517f08c379a000000000000000000000000000000000000000000000000000000000815260040161047f90612f1c565b60405180910390fd5b6001600085815260200190815260200160002060010160009054906101000a900473ffffffffffffffffffffffffffffffffffffffff1673ffffffffffffffffffffffffffffffffffffffff163373ffffffffffffffffffffffffffffffffffffffff16148061055957506001600085815260200190815260200160002060020160009054906101000a900473ffffffffffffffffffffffffffffffffffffffff1673ffffffffffffffffffffffffffffffffffffffff163373ffffffffffffffffffffffffffffffffffffffff16145b610598576040517f08c379a000000000000000000000000000000000000000000000000000000000815260040161058f90612f88565b60405180910390fd5b600360058111156105ac576105ab612ce0565b5b6001600086815260200190815260200160002060090160009054906101000a900460ff1660058111156105e2576105e1612ce0565b5b14610622576040517f08c379a000000000000000000000000000000000000000000000000000000000815260040161061990612ff4565b60405180910390fd5b600060036000868152602001908152602001600020805461064290613043565b905014610684576040517f08c379a000000000000000000000000000000000000000000000000000000000815260040161067b906130c0565b60405180910390fd5b82826003600087815260200190815260200160002091826106a69291906132c6565b5050505050565b62093a8081565b600381565b6060600260008373ffffffffffffffffffffffffffffffffffffffff1673ffffffffffffffffffffffffffffffffffffffff16815260200190815260200160002080548060200260200160405190810160405280929190818152602001828054801561074457602002820191906000526020600020905b815481526020019060010190808311610730575b50505050509050919050565b60608160008111801561076557506000548111155b6107a4576040517f08c379a000000000000000000000000000000000000000000000000000000000815260040161079b90612f1c565b60405180910390fd5b6003600084815260200190815260200160002080546107c290613043565b80601f01602080910402602001604051908101604052809291908181526020018280546107ee90613043565b801561083b5780601f106108105761010080835404028352916020019161083b565b820191906000526020600020905b81548152906001019060200180831161081e57829003601f168201915b5050505050915050919050565b8060008111801561085b57506000548111155b61089a576040517f08c379a000000000000000000000000000000000000000000000000000000000815260040161089190612f1c565b60405180910390fd5b813373ffffffffffffffffffffffffffffffffffffffff166001600083815260200190815260200160002060020160009054906101000a900473ffffffffffffffffffffffffffffffffffffffff1673ffffffffffffffffffffffffffffffffffffffff161461093f576040517f08c379a0000000000000000000000000000000000000000000000000000000008152600401610936906133e2565b60405180910390fd5b82600280600581111561095557610954612ce0565b5b6001600084815260200190815260200160002060090160009054906101000a900460ff16600581111561098b5761098a612ce0565b5b146109cb576040517f08c379a00000000000000000000000000000000000000000000000000000000081526004016109c29061344e565b60405180910390fd5b6109d36127df565b60006001600087815260200190815260200160002090506000816008015403610a31576040517f08c379a0000000000000000000000000000000000000000000000000000000008152600401610a28906134ba565b60405180910390fd5b62093a808160080154610a449190613509565b421015610a86576040517f08c379a0000000000000000000000000000000000000000000000000000000008152600401610a7d90613589565b60405180910390fd5b60038160090160006101000a81548160ff02191690836005811115610aae57610aad612ce0565b5b0217905550600081600501548260040154610ac991906135a9565b9050600073ffffffffffffffffffffffffffffffffffffffff168260030160009054906101000a900473ffffffffffffffffffffffffffffffffffffffff1673ffffffffffffffffffffffffffffffffffffffff1603610bfe578160020160009054906101000a900473ffffffffffffffffffffffffffffffffffffffff1673ffffffffffffffffffffffffffffffffffffffff166108fc829081150290604051600060405180830381858888f19350505050158015610b8d573d6000803e3d6000fd5b507f000000000000000000000000000000000000000000000000000000000000000073ffffffffffffffffffffffffffffffffffffffff166108fc83600501549081150290604051600060405180830381858888f19350505050158015610bf8573d6000803e3d6000fd5b50610deb565b60008260030160009054906101000a900473ffffffffffffffffffffffffffffffffffffffff1690508073ffffffffffffffffffffffffffffffffffffffff1663a9059cbb8460020160009054906101000a900473ffffffffffffffffffffffffffffffffffffffff16846040518363ffffffff1660e01b8152600401610c869291906135dd565b6020604051808303816000875af1158015610ca5573d6000803e3d6000fd5b505050506040513d601f19601f82011682018060405250810190610cc9919061363e565b610d08576040517f08c379a0000000000000000000000000000000000000000000000000000000008152600401610cff906136b7565b60405180910390fd5b8073ffffffffffffffffffffffffffffffffffffffff1663a9059cbb7f000000000000000000000000000000000000000000000000000000000000000085600501546040518363ffffffff1660e01b8152600401610d679291906135dd565b6020604051808303816000875af1158015610d86573d6000803e3d6000fd5b505050506040513d601f19601f82011682018060405250810190610daa919061363e565b610de9576040517f08c379a0000000000000000000000000000000000000000000000000000000008152600401610de090613723565b60405180910390fd5b505b867fb51631ee0dabb602235e2be68fd766c490cd592c0a7ce89673de4a685b9d25258360020160009054906101000a900473ffffffffffffffffffffffffffffffffffffffff16838560050154604051610e4793929190613743565b60405180910390a25050610e59612802565b5050505050565b610e686128b1565b81600081118015610e7b57506000548111155b610eba576040517f08c379a0000000000000000000000000000000000000000000000000000000008152600401610eb190612f1c565b60405180910390fd5b6001600084815260200190815260200160002060405180610140016040529081600082015481526020016001820160009054906101000a900473ffffffffffffffffffffffffffffffffffffffff1673ffffffffffffffffffffffffffffffffffffffff1673ffffffffffffffffffffffffffffffffffffffff1681526020016002820160009054906101000a900473ffffffffffffffffffffffffffffffffffffffff1673ffffffffffffffffffffffffffffffffffffffff1673ffffffffffffffffffffffffffffffffffffffff1681526020016003820160009054906101000a900473ffffffffffffffffffffffffffffffffffffffff1673ffffffffffffffffffffffffffffffffffffffff1673ffffffffffffffffffffffffffffffffffffffff16815260200160048201548152602001600582015481526020016006820154815260200160078201548152602001600882015481526020016009820160009054906101000a900460ff16600581111561103c5761103b612ce0565b5b600581111561104e5761104d612ce0565b5b81525050915050919050565b62278d0081565b8060008111801561107457506000548111155b6110b3576040517f08c379a00000000000000000000000000000000000000000000000000000000081526004016110aa90612f1c565b60405180910390fd5b813373ffffffffffffffffffffffffffffffffffffffff166001600083815260200190815260200160002060010160009054906101000a900473ffffffffffffffffffffffffffffffffffffffff1673ffffffffffffffffffffffffffffffffffffffff1614611158576040517f08c379a000000000000000000000000000000000000000000000000000000000815260040161114f906137c6565b60405180910390fd5b82600280600581111561116e5761116d612ce0565b5b6001600084815260200190815260200160002060090160009054906101000a900460ff1660058111156111a4576111a3612ce0565b5b146111e4576040517f08c379a00000000000000000000000000000000000000000000000000000000081526004016111db9061344e565b60405180910390fd5b6111ec6127df565b600060016000878152602001908152602001600020905060038160090160006101000a81548160ff0219169083600581111561122b5761122a612ce0565b5b021790555060008160050154826004015461124691906135a9565b9050600073ffffffffffffffffffffffffffffffffffffffff168260030160009054906101000a900473ffffffffffffffffffffffffffffffffffffffff1673ffffffffffffffffffffffffffffffffffffffff160361137b578160020160009054906101000a900473ffffffffffffffffffffffffffffffffffffffff1673ffffffffffffffffffffffffffffffffffffffff166108fc829081150290604051600060405180830381858888f1935050505015801561130a573d6000803e3d6000fd5b507f000000000000000000000000000000000000000000000000000000000000000073ffffffffffffffffffffffffffffffffffffffff166108fc83600501549081150290604051600060405180830381858888f19350505050158015611375573d6000803e3d6000fd5b50611568565b60008260030160009054906101000a900473ffffffffffffffffffffffffffffffffffffffff1690508073ffffffffffffffffffffffffffffffffffffffff1663a9059cbb8460020160009054906101000a900473ffffffffffffffffffffffffffffffffffffffff16846040518363ffffffff1660e01b81526004016114039291906135dd565b6020604051808303816000875af1158015611422573d6000803e3d6000fd5b505050506040513d601f19601f82011682018060405250810190611446919061363e565b611485576040517f08c379a000000000000000000000000000000000000000000000000000000000815260040161147c906136b7565b60405180910390fd5b8073ffffffffffffffffffffffffffffffffffffffff1663a9059cbb7f000000000000000000000000000000000000000000000000000000000000000085600501546040518363ffffffff1660e01b81526004016114e49291906135dd565b6020604051808303816000875af1158015611503573d6000803e3d6000fd5b505050506040513d601f19601f82011682018060405250810190611527919061363e565b611566576040517f08c379a000000000000000000000000000000000000000000000000000000000815260040161155d90613723565b60405180910390fd5b505b867ff86dbbaae73a38eba376327ec68def0678d91d952b4a18aa86d880f199632bd98360020160009054906101000a900473ffffffffffffffffffffffffffffffffffffffff168385600501546040516115c493929190613743565b60405180910390a250506115d6612802565b5050505050565b60005481565b806000811180156115f657506000548111155b611635576040517f08c379a000000000000000000000000000000000000000000000000000000000815260040161162c90612f1c565b60405180910390fd5b813373ffffffffffffffffffffffffffffffffffffffff166001600083815260200190815260200160002060010160009054906101000a900473ffffffffffffffffffffffffffffffffffffffff1673ffffffffffffffffffffffffffffffffffffffff16146116da576040517f08c379a00000000000000000000000000000000000000000000000000000000081526004016116d1906137c6565b60405180910390fd5b8260008060058111156116f0576116ef612ce0565b5b6001600084815260200190815260200160002060090160009054906101000a900460ff16600581111561172657611725612ce0565b5b14611766576040517f08c379a000000000000000000000000000000000000000000000000000000000815260040161175d9061344e565b60405180910390fd5b61176e6127df565b6000600160008781526020019081526020016000209050600073ffffffffffffffffffffffffffffffffffffffff168160030160009054906101000a900473ffffffffffffffffffffffffffffffffffffffff1673ffffffffffffffffffffffffffffffffffffffff16036118285780600401543414611823576040517f08c379a000000000000000000000000000000000000000000000000000000000815260040161181a90613832565b60405180910390fd5b611959565b6000341461186b576040517f08c379a00000000000000000000000000000000000000000000000000000000081526004016118629061389e565b60405180910390fd5b60008160030160009054906101000a900473ffffffffffffffffffffffffffffffffffffffff1673ffffffffffffffffffffffffffffffffffffffff166323b872dd333085600401546040518463ffffffff1660e01b81526004016118d2939291906138be565b6020604051808303816000875af11580156118f1573d6000803e3d6000fd5b505050506040513d601f19601f82011682018060405250810190611915919061363e565b905080611957576040517f08c379a000000000000000000000000000000000000000000000000000000000815260040161194e90613941565b60405180910390fd5b505b60018160090160006101000a81548160ff0219169083600581111561198157611980612ce0565b5b0217905550857f911052e1be46242b46bf3c2762227ff37c000e5fe38727638096f3a17fbfe17082600401546040516119ba9190612971565b60405180910390a2506119cb612802565b5050505050565b806000811180156119e557506000548111155b611a24576040517f08c379a0000000000000000000000000000000000000000000000000000000008152600401611a1b90612f1c565b60405180910390fd5b813373ffffffffffffffffffffffffffffffffffffffff166001600083815260200190815260200160002060010160009054906101000a900473ffffffffffffffffffffffffffffffffffffffff1673ffffffffffffffffffffffffffffffffffffffff1614611ac9576040517f08c379a0000000000000000000000000000000000000000000000000000000008152600401611ac0906137c6565b60405180910390fd5b826001806005811115611adf57611ade612ce0565b5b6001600084815260200190815260200160002060090160009054906101000a900460ff166005811115611b1557611b14612ce0565b5b14611b55576040517f08c379a0000000000000000000000000000000000000000000000000000000008152600401611b4c9061344e565b60405180910390fd5b611b5d6127df565b600060016000878152602001908152602001600020905080600701544211611bba576040517f08c379a0000000000000000000000000000000000000000000000000000000008152600401611bb1906139ad565b60405180910390fd5b60048160090160006101000a81548160ff02191690836005811115611be257611be1612ce0565b5b0217905550600073ffffffffffffffffffffffffffffffffffffffff168160030160009054906101000a900473ffffffffffffffffffffffffffffffffffffffff1673ffffffffffffffffffffffffffffffffffffffff1603611cb3578060010160009054906101000a900473ffffffffffffffffffffffffffffffffffffffff1673ffffffffffffffffffffffffffffffffffffffff166108fc82600401549081150290604051600060405180830381858888f19350505050158015611cad573d6000803e3d6000fd5b50611dc3565b60008160030160009054906101000a900473ffffffffffffffffffffffffffffffffffffffff1690508073ffffffffffffffffffffffffffffffffffffffff1663a9059cbb8360010160009054906101000a900473ffffffffffffffffffffffffffffffffffffffff1684600401546040518363ffffffff1660e01b8152600401611d3f9291906135dd565b6020604051808303816000875af1158015611d5e573d6000803e3d6000fd5b505050506040513d601f19601f82011682018060405250810190611d82919061363e565b611dc1576040517f08c379a0000000000000000000000000000000000000000000000000000000008152600401611db890613a19565b60405180910390fd5b505b857fb9230abd44c2a325c61a30c47599788524e0b75d6f4f9193a2931fcec687d37a8260010160009054906101000a900473ffffffffffffffffffffffffffffffffffffffff168360040154604051611e1d9291906135dd565b60405180910390a250611e2e612802565b5050505050565b600073ffffffffffffffffffffffffffffffffffffffff168473ffffffffffffffffffffffffffffffffffffffff1603611ea4576040517f08c379a0000000000000000000000000000000000000000000000000000000008152600401611e9b90613a85565b60405180910390fd5b3373ffffffffffffffffffffffffffffffffffffffff168473ffffffffffffffffffffffffffffffffffffffff1603611f12576040517f08c379a0000000000000000000000000000000000000000000000000000000008152600401611f0990613af1565b60405180910390fd5b66038d7ea4c68000821015611f5c576040517f08c379a0000000000000000000000000000000000000000000000000000000008152600401611f5390613b5d565b60405180910390fd5b428111611f9e576040517f08c379a0000000000000000000000000000000000000000000000000000000008152600401611f9590613bc9565b60405180910390fd5b62278d0042611fad9190613509565b811115611fef576040517f08c379a0000000000000000000000000000000000000000000000000000000008152600401611fe690613c35565b60405180910390fd5b60008081548092919061200190613c55565b919050555060006127106003846120189190613c9d565b6120229190613d0e565b905060405180610140016040528060005481526020013373ffffffffffffffffffffffffffffffffffffffff1681526020018673ffffffffffffffffffffffffffffffffffffffff1681526020018573ffffffffffffffffffffffffffffffffffffffff16815260200184815260200182815260200142815260200183815260200160008152602001600060058111156120bf576120be612ce0565b5b81525060016000805481526020019081526020016000206000820151816000015560208201518160010160006101000a81548173ffffffffffffffffffffffffffffffffffffffff021916908373ffffffffffffffffffffffffffffffffffffffff16021790555060408201518160020160006101000a81548173ffffffffffffffffffffffffffffffffffffffff021916908373ffffffffffffffffffffffffffffffffffffffff16021790555060608201518160030160006101000a81548173ffffffffffffffffffffffffffffffffffffffff021916908373ffffffffffffffffffffffffffffffffffffffff1602179055506080820151816004015560a0820151816005015560c0820151816006015560e0820151816007015561010082015181600801556101208201518160090160006101000a81548160ff0219169083600581111561221457612213612ce0565b5b0217905550905050600260003373ffffffffffffffffffffffffffffffffffffffff1673ffffffffffffffffffffffffffffffffffffffff1681526020019081526020016000206000549080600181540180825580915050600190039060005260206000200160009091909190915055600260008673ffffffffffffffffffffffffffffffffffffffff1673ffffffffffffffffffffffffffffffffffffffff16815260200190815260200160002060005490806001815401808255809150506001900390600052602060002001600090919091909150558473ffffffffffffffffffffffffffffffffffffffff163373ffffffffffffffffffffffffffffffffffffffff166000547fd91ffdf72f8c3d62bbe8989808f4896563a1455682e9170c1384b1f90536792e87878760405161235093929190613743565b60405180910390a45050505050565b66038d7ea4c6800081565b8060008111801561237d57506000548111155b6123bc576040517f08c379a00000000000000000000000000000000000000000000000000000000081526004016123b390612f1c565b60405180910390fd5b813373ffffffffffffffffffffffffffffffffffffffff166001600083815260200190815260200160002060010160009054906101000a900473ffffffffffffffffffffffffffffffffffffffff1673ffffffffffffffffffffffffffffffffffffffff1614612461576040517f08c379a0000000000000000000000000000000000000000000000000000000008152600401612458906137c6565b60405180910390fd5b82600080600581111561247757612476612ce0565b5b6001600084815260200190815260200160002060090160009054906101000a900460ff1660058111156124ad576124ac612ce0565b5b146124ed576040517f08c379a00000000000000000000000000000000000000000000000000000000081526004016124e49061344e565b60405180910390fd5b60056001600087815260200190815260200160002060090160006101000a81548160ff0219169083600581111561252757612526612ce0565b5b0217905550847fc41d93b8bfbf9fd7cf5bfe271fd649ab6a6fec0ea101c23b82a2a28eca2533a960405160405180910390a25050505050565b8060008111801561257357506000548111155b6125b2576040517f08c379a00000000000000000000000000000000000000000000000000000000081526004016125a990612f1c565b60405180910390fd5b813373ffffffffffffffffffffffffffffffffffffffff166001600083815260200190815260200160002060020160009054906101000a900473ffffffffffffffffffffffffffffffffffffffff1673ffffffffffffffffffffffffffffffffffffffff1614612657576040517f08c379a000000000000000000000000000000000000000000000000000000000815260040161264e906133e2565b60405180910390fd5b82600180600581111561266d5761266c612ce0565b5b6001600084815260200190815260200160002060090160009054906101000a900460ff1660058111156126a3576126a2612ce0565b5b146126e3576040517f08c379a00000000000000000000000000000000000000000000000000000000081526004016126da9061344e565b60405180910390fd5b60006001600087815260200190815260200160002090508060070154421115612741576040517f08c379a000000000000000000000000000000000000000000000000000000000815260040161273890613d8b565b60405180910390fd5b42816008018190555060028160090160006101000a81548160ff0219169083600581111561277257612771612ce0565b5b0217905550857f8d84aa4c3d0f1410a0ed52701dfd802c9f0ebf00aa65c54a393d180a3f9c0cd382600801546040516127ab9190612971565b60405180910390a2505050505050565b7f000000000000000000000000000000000000000000000000000000000000000081565b6127e761281d565b60026127f96127f461285e565b612889565b60000181905550565b600161281461280f61285e565b612889565b60000181905550565b612825612893565b1561285c576040517f3ee5aeb500000000000000000000000000000000000000000000000000000000815260040160405180910390fd5b565b60007f9b779b17422d0df92223018b32b4d1fa46e071723d6817e2486d003becc55f0060001b905090565b6000819050919050565b600060026128a76128a261285e565b612889565b6000015414905090565b60405180610140016040528060008152602001600073ffffffffffffffffffffffffffffffffffffffff168152602001600073ffffffffffffffffffffffffffffffffffffffff168152602001600073ffffffffffffffffffffffffffffffffffffffff16815260200160008152602001600081526020016000815260200160008152602001600081526020016000600581111561295257612951612ce0565b5b81525090565b6000819050919050565b61296b81612958565b82525050565b60006020820190506129866000830184612962565b92915050565b600080fd5b600080fd5b61299f81612958565b81146129aa57600080fd5b50565b6000813590506129bc81612996565b92915050565b600080fd5b600080fd5b600080fd5b60008083601f8401126129e7576129e66129c2565b5b8235905067ffffffffffffffff811115612a0457612a036129c7565b5b602083019150836001820283011115612a2057612a1f6129cc565b5b9250929050565b600080600060408486031215612a4057612a3f61298c565b5b6000612a4e868287016129ad565b935050602084013567ffffffffffffffff811115612a6f57612a6e612991565b5b612a7b868287016129d1565b92509250509250925092565b600073ffffffffffffffffffffffffffffffffffffffff82169050919050565b6000612ab282612a87565b9050919050565b612ac281612aa7565b8114612acd57600080fd5b50565b600081359050612adf81612ab9565b92915050565b600060208284031215612afb57612afa61298c565b5b6000612b0984828501612ad0565b91505092915050565b600081519050919050565b600082825260208201905092915050565b6000819050602082019050919050565b612b4781612958565b82525050565b6000612b598383612b3e565b60208301905092915050565b6000602082019050919050565b6000612b7d82612b12565b612b878185612b1d565b9350612b9283612b2e565b8060005b83811015612bc3578151612baa8882612b4d565b9750612bb583612b65565b925050600181019050612b96565b5085935050505092915050565b60006020820190508181036000830152612bea8184612b72565b905092915050565b600060208284031215612c0857612c0761298c565b5b6000612c16848285016129ad565b91505092915050565b600081519050919050565b600082825260208201905092915050565b60005b83811015612c59578082015181840152602081019050612c3e565b60008484015250505050565b6000601f19601f8301169050919050565b6000612c8182612c1f565b612c8b8185612c2a565b9350612c9b818560208601612c3b565b612ca481612c65565b840191505092915050565b60006020820190508181036000830152612cc98184612c76565b905092915050565b612cda81612aa7565b82525050565b7f4e487b7100000000000000000000000000000000000000000000000000000000600052602160045260246000fd5b60068110612d2057612d1f612ce0565b5b50565b6000819050612d3182612d0f565b919050565b6000612d4182612d23565b9050919050565b612d5181612d36565b82525050565b61014082016000820151612d6e6000850182612b3e565b506020820151612d816020850182612cd1565b506040820151612d946040850182612cd1565b506060820151612da76060850182612cd1565b506080820151612dba6080850182612b3e565b5060a0820151612dcd60a0850182612b3e565b5060c0820151612de060c0850182612b3e565b5060e0820151612df360e0850182612b3e565b50610100820151612e08610100850182612b3e565b50610120820151612e1d610120850182612d48565b50505050565b600061014082019050612e396000830184612d57565b92915050565b60008060008060808587031215612e5957612e5861298c565b5b6000612e6787828801612ad0565b9450506020612e7887828801612ad0565b9350506040612e89878288016129ad565b9250506060612e9a878288016129ad565b91505092959194509250565b612eaf81612aa7565b82525050565b6000602082019050612eca6000830184612ea6565b92915050565b7f457363726f77206e6f7420666f756e6400000000000000000000000000000000600082015250565b6000612f06601083612c2a565b9150612f1182612ed0565b602082019050919050565b60006020820190508181036000830152612f3581612ef9565b9050919050565b7f556e617574686f72697a65640000000000000000000000000000000000000000600082015250565b6000612f72600c83612c2a565b9150612f7d82612f3c565b602082019050919050565b60006020820190508181036000830152612fa181612f65565b9050919050565b7f457363726f77206e6f742072656c656173656400000000000000000000000000600082015250565b6000612fde601383612c2a565b9150612fe982612fa8565b602082019050919050565b6000602082019050818103600083015261300d81612fd1565b9050919050565b7f4e487b7100000000000000000000000000000000000000000000000000000000600052602260045260246000fd5b6000600282049050600182168061305b57607f821691505b60208210810361306e5761306d613014565b5b50919050565b7f4861736820616c72656164792073617665640000000000000000000000000000600082015250565b60006130aa601283612c2a565b91506130b582613074565b602082019050919050565b600060208201905081810360008301526130d98161309d565b9050919050565b600082905092915050565b7f4e487b7100000000000000000000000000000000000000000000000000000000600052604160045260246000fd5b60008190508160005260206000209050919050565b60006020601f8301049050919050565b600082821b905092915050565b60006008830261317c7fffffffffffffffffffffffffffffffffffffffffffffffffffffffffffffffff8261313f565b613186868361313f565b95508019841693508086168417925050509392505050565b6000819050919050565b60006131c36131be6131b984612958565b61319e565b612958565b9050919050565b6000819050919050565b6131dd836131a8565b6131f16131e9826131ca565b84845461314c565b825550505050565b600090565b6132066131f9565b6132118184846131d4565b505050565b5b818110156132355761322a6000826131fe565b600181019050613217565b5050565b601f82111561327a5761324b8161311a565b6132548461312f565b81016020851015613263578190505b61327761326f8561312f565b830182613216565b50505b505050565b600082821c905092915050565b600061329d6000198460080261327f565b1980831691505092915050565b60006132b6838361328c565b9150826002028217905092915050565b6132d083836130e0565b67ffffffffffffffff8111156132e9576132e86130eb565b5b6132f38254613043565b6132fe828285613239565b6000601f83116001811461332d576000841561331b578287013590505b61332585826132aa565b86555061338d565b601f19841661333b8661311a565b60005b828110156133635784890135825560018201915060208501945060208101905061333e565b86831015613380578489013561337c601f89168261328c565b8355505b6001600288020188555050505b50505050505050565b7f4f6e6c792073656c6c6572000000000000000000000000000000000000000000600082015250565b60006133cc600b83612c2a565b91506133d782613396565b602082019050919050565b600060208201905081810360008301526133fb816133bf565b9050919050565b7f496e76616c696420657363726f77207374617475730000000000000000000000600082015250565b6000613438601583612c2a565b915061344382613402565b602082019050919050565b600060208201905081810360008301526134678161342b565b9050919050565b7f457363726f77206e6f742064656c697665726564000000000000000000000000600082015250565b60006134a4601483612c2a565b91506134af8261346e565b602082019050919050565b600060208201905081810360008301526134d381613497565b9050919050565b7f4e487b7100000000000000000000000000000000000000000000000000000000600052601160045260246000fd5b600061351482612958565b915061351f83612958565b9250828201905080821115613537576135366134da565b5b92915050565b7f42757965722072657669657720706572696f64206e6f742066696e6973686564600082015250565b6000613573602083612c2a565b915061357e8261353d565b602082019050919050565b600060208201905081810360008301526135a281613566565b9050919050565b60006135b482612958565b91506135bf83612958565b92508282039050818111156135d7576135d66134da565b5b92915050565b60006040820190506135f26000830185612ea6565b6135ff6020830184612962565b9392505050565b60008115159050919050565b61361b81613606565b811461362657600080fd5b50565b60008151905061363881613612565b92915050565b6000602082840312156136545761365361298c565b5b600061366284828501613629565b91505092915050565b7f53656c6c6572207472616e73666572206661696c656400000000000000000000600082015250565b60006136a1601683612c2a565b91506136ac8261366b565b602082019050919050565b600060208201905081810360008301526136d081613694565b9050919050565b7f506c6174666f726d20666565206661696c656400000000000000000000000000600082015250565b600061370d601383612c2a565b9150613718826136d7565b602082019050919050565b6000602082019050818103600083015261373c81613700565b9050919050565b60006060820190506137586000830186612ea6565b6137656020830185612962565b6137726040830184612962565b949350505050565b7f4f6e6c7920627579657200000000000000000000000000000000000000000000600082015250565b60006137b0600a83612c2a565b91506137bb8261377a565b602082019050919050565b600060208201905081810360008301526137df816137a3565b9050919050565b7f496e76616c69642045544820616d6f756e740000000000000000000000000000600082015250565b600061381c601283612c2a565b9150613827826137e6565b602082019050919050565b6000602082019050818103600083015261384b8161380f565b9050919050565b7f455448206e6f7420726571756972656400000000000000000000000000000000600082015250565b6000613888601083612c2a565b915061389382613852565b602082019050919050565b600060208201905081810360008301526138b78161387b565b9050919050565b60006060820190506138d36000830186612ea6565b6138e06020830185612ea6565b6138ed6040830184612962565b949350505050565b7f5472616e73666572206661696c65640000000000000000000000000000000000600082015250565b600061392b600f83612c2a565b9150613936826138f5565b602082019050919050565b6000602082019050818103600083015261395a8161391e565b9050919050565b7f53656c6c657220646561646c696e65206e6f7420726561636865640000000000600082015250565b6000613997601b83612c2a565b91506139a282613961565b602082019050919050565b600060208201905081810360008301526139c68161398a565b9050919050565b7f526566756e64206661696c656400000000000000000000000000000000000000600082015250565b6000613a03600d83612c2a565b9150613a0e826139cd565b602082019050919050565b60006020820190508181036000830152613a32816139f6565b9050919050565b7f496e76616c69642073656c6c6572000000000000000000000000000000000000600082015250565b6000613a6f600e83612c2a565b9150613a7a82613a39565b602082019050919050565b60006020820190508181036000830152613a9e81613a62565b9050919050565b7f42757965722063616e6e6f742062652073656c6c657200000000000000000000600082015250565b6000613adb601683612c2a565b9150613ae682613aa5565b602082019050919050565b60006020820190508181036000830152613b0a81613ace565b9050919050565b7f416d6f756e7420746f6f20736d616c6c00000000000000000000000000000000600082015250565b6000613b47601083612c2a565b9150613b5282613b11565b602082019050919050565b60006020820190508181036000830152613b7681613b3a565b9050919050565b7f496e76616c696420646561646c696e6500000000000000000000000000000000600082015250565b6000613bb3601083612c2a565b9150613bbe82613b7d565b602082019050919050565b60006020820190508181036000830152613be281613ba6565b9050919050565b7f446561646c696e6520746f6f206c6f6e67000000000000000000000000000000600082015250565b6000613c1f601183612c2a565b9150613c2a82613be9565b602082019050919050565b60006020820190508181036000830152613c4e81613c12565b9050919050565b6000613c6082612958565b91507fffffffffffffffffffffffffffffffffffffffffffffffffffffffffffffffff8203613c9257613c916134da565b5b600182019050919050565b6000613ca882612958565b9150613cb383612958565b9250828202613cc181612958565b91508282048414831517613cd857613cd76134da565b5b5092915050565b7f4e487b7100000000000000000000000000000000000000000000000000000000600052601260045260246000fd5b6000613d1982612958565b9150613d2483612958565b925082613d3457613d33613cdf565b5b828204905092915050565b7f53656c6c657220646561646c696e652065786365656465640000000000000000600082015250565b6000613d75601883612c2a565b9150613d8082613d3f565b602082019050919050565b60006020820190508181036000830152613da481613d68565b905091905056fea2646970667358221220a889e21d3daf9ef77e8e7a739a3076478bf19de5e304ef4b84d2c97f6d4dfa4e64736f6c634300081c0033",
  "linkReferences": {},
  "deployedLinkReferences": {}
}